{
  "contractName": "Bank",
  "abi": [
    {
      "inputs": [
        {
          "internalType": "uint256",
          "name": "_amount",
          "type": "uint256"
        }
      ],
      "name": "deposit",
      "outputs": [],
      "stateMutability": "payable",
      "type": "function"
    },
    {
      "inputs": [
        {
          "internalType": "uint256",
          "name": "_amount",
          "type": "uint256"
        },
        {
          "internalType": "address",
          "name": "_recipient",
          "type": "address"
        }
      ],
      "name": "transfer",
      "outputs": [],
      "stateMutability": "payable",
      "type": "function"
    },
    {
      "inputs": [
        {
          "internalType": "address",
          "name": "_address",
          "type": "address"
        }
      ],
      "name": "balanceOf",
      "outputs": [
        {
          "internalType": "uint256",
          "name": "",
          "type": "uint256"
        }
      ],
      "stateMutability": "view",
      "type": "function"
    }
  ],
  "bytecode": "0x608060405234801561001057600080fd5b50610621806100206000396000f3fe6080604052600436106100345760003560e01c806370a0823114610039578063b6b55f2514610076578063b7760c8f14610092575b600080fd5b34801561004557600080fd5b50610060600480360381019061005b919061034f565b6100ae565b60405161006d9190610395565b60405180910390f35b610090600480360381019061008b91906103dc565b6100f6565b005b6100ac60048036038101906100a79190610409565b61014e565b005b60008060008373ffffffffffffffffffffffffffffffffffffffff1673ffffffffffffffffffffffffffffffffffffffff168152602001908152602001600020549050919050565b806000803373ffffffffffffffffffffffffffffffffffffffff1673ffffffffffffffffffffffffffffffffffffffff16815260200190815260200160002060008282546101449190610478565b9250508190555050565b600073ffffffffffffffffffffffffffffffffffffffff168173ffffffffffffffffffffffffffffffffffffffff16036101bd576040517f08c379a00000000000000000000000000000000000000000000000000000000081526004016101b49061052b565b60405180910390fd5b816000803373ffffffffffffffffffffffffffffffffffffffff1673ffffffffffffffffffffffffffffffffffffffff16815260200190815260200160002054101561023e576040517f08c379a000000000000000000000000000000000000000000000000000000000815260040161023590610597565b60405180910390fd5b816000808373ffffffffffffffffffffffffffffffffffffffff1673ffffffffffffffffffffffffffffffffffffffff168152602001908152602001600020600082825461028c9190610478565b92505081905550816000803373ffffffffffffffffffffffffffffffffffffffff1673ffffffffffffffffffffffffffffffffffffffff16815260200190815260200160002060008282546102e191906105b7565b925050819055505050565b600080fd5b600073ffffffffffffffffffffffffffffffffffffffff82169050919050565b600061031c826102f1565b9050919050565b61032c81610311565b811461033757600080fd5b50565b60008135905061034981610323565b92915050565b600060208284031215610365576103646102ec565b5b60006103738482850161033a565b91505092915050565b6000819050919050565b61038f8161037c565b82525050565b60006020820190506103aa6000830184610386565b92915050565b6103b98161037c565b81146103c457600080fd5b50565b6000813590506103d6816103b0565b92915050565b6000602082840312156103f2576103f16102ec565b5b6000610400848285016103c7565b91505092915050565b600080604083850312156104205761041f6102ec565b5b600061042e858286016103c7565b925050602061043f8582860161033a565b9150509250929050565b7f4e487b7100000000000000000000000000000000000000000000000000000000600052601160045260246000fd5b60006104838261037c565b915061048e8361037c565b9250827fffffffffffffffffffffffffffffffffffffffffffffffffffffffffffffffff038211156104c3576104c2610449565b5b828201905092915050565b600082825260208201905092915050565b7f6d65737361676520642765727265757200000000000000000000000000000000600082015250565b60006105156010836104ce565b9150610520826104df565b602082019050919050565b6000602082019050818103600083015261054481610508565b9050919050565b7f666f6e647320696e737566666973616e74730000000000000000000000000000600082015250565b60006105816012836104ce565b915061058c8261054b565b602082019050919050565b600060208201905081810360008301526105b081610574565b9050919050565b60006105c28261037c565b91506105cd8361037c565b9250828210156105e0576105df610449565b5b82820390509291505056fea264697066735822122048fb0b7d6ef98e9ecfb4eefa013024c077620c605afe2e39fcb8e978e23f154864736f6c634300080e0033",
  "immutableReferences": {},
  "source": "// SPDX-License-Identifier: GPL-3.0\r\n\r\npragma solidity >=0.7.0 <0.9.0;\r\n\r\n/**\r\n * Exercice Banque decentralise\r\n */\r\ncontract Bank {\r\n\r\n    mapping (address=>uint) private _balances ;\r\n\r\n    function deposit(uint _amount) public payable{\r\n        _balances[msg.sender]+=_amount;\r\n    }\r\n\r\n    function transfer (uint _amount, address _recipient) public payable{\r\n        require (_recipient !=address(0),\"message d'erreur\");\r\n        require(_balances[msg.sender]>=_amount,\"fonds insuffisants\");\r\n        _balances[_recipient] += _amount;\r\n        _balances[msg.sender] -= _amount;\r\n    }\r\n    \r\n    function balanceOf(address _address)public view returns (uint){\r\n        return _balances[_address];\r\n    }\r\n}",
  "sourcePath": "/root/formation/Init/contracts/Alyra/Ex_BNQ_DEC.sol",
  "compiler": {
    "name": "solc",
    "version": "0.8.14+commit.80d49f37.Emscripten.clang"
  },
  "schemaVersion": "3.4.7",
  "updatedAt": "2022-06-24T09:46:20.091Z",
  "devdoc": {
    "kind": "dev",
    "methods": {},
    "version": 1
  },
  "userdoc": {
    "kind": "user",
    "methods": {},
    "notice": "Exercice Banque decentralise",
    "version": 1
  }
}