{
  "contractName": "Voting",
  "abi": [
    {
      "anonymous": false,
      "inputs": [
        {
          "indexed": true,
          "internalType": "address",
          "name": "previousOwner",
          "type": "address"
        },
        {
          "indexed": true,
          "internalType": "address",
          "name": "newOwner",
          "type": "address"
        }
      ],
      "name": "OwnershipTransferred",
      "type": "event"
    },
    {
      "anonymous": false,
      "inputs": [
        {
          "indexed": false,
          "internalType": "uint256",
          "name": "proposalId",
          "type": "uint256"
        }
      ],
      "name": "ProposalRegistered",
      "type": "event"
    },
    {
      "anonymous": false,
      "inputs": [
        {
          "indexed": false,
          "internalType": "address",
          "name": "voter",
          "type": "address"
        },
        {
          "indexed": false,
          "internalType": "uint256",
          "name": "proposalId",
          "type": "uint256"
        }
      ],
      "name": "Voted",
      "type": "event"
    },
    {
      "anonymous": false,
      "inputs": [
        {
          "indexed": false,
          "internalType": "address",
          "name": "voterAddress",
          "type": "address"
        }
      ],
      "name": "VoterRegistered",
      "type": "event"
    },
    {
      "anonymous": false,
      "inputs": [
        {
          "indexed": false,
          "internalType": "enum Voting.WorkflowStatus",
          "name": "previousStatus",
          "type": "uint8"
        },
        {
          "indexed": false,
          "internalType": "enum Voting.WorkflowStatus",
          "name": "newStatus",
          "type": "uint8"
        }
      ],
      "name": "WorkflowStatusChange",
      "type": "event"
    },
    {
      "inputs": [
        {
          "internalType": "address",
          "name": "",
          "type": "address"
        }
      ],
      "name": "WhiteList",
      "outputs": [
        {
          "internalType": "bool",
          "name": "isRegistered",
          "type": "bool"
        },
        {
          "internalType": "bool",
          "name": "hasVoted",
          "type": "bool"
        },
        {
          "internalType": "uint256",
          "name": "votedProposalId",
          "type": "uint256"
        }
      ],
      "stateMutability": "view",
      "type": "function"
    },
    {
      "inputs": [],
      "name": "countVoteBlanc",
      "outputs": [
        {
          "internalType": "uint256",
          "name": "",
          "type": "uint256"
        }
      ],
      "stateMutability": "view",
      "type": "function"
    },
    {
      "inputs": [],
      "name": "owner",
      "outputs": [
        {
          "internalType": "address",
          "name": "",
          "type": "address"
        }
      ],
      "stateMutability": "view",
      "type": "function"
    },
    {
      "inputs": [
        {
          "internalType": "uint256",
          "name": "",
          "type": "uint256"
        }
      ],
      "name": "proposals",
      "outputs": [
        {
          "internalType": "string",
          "name": "description",
          "type": "string"
        },
        {
          "internalType": "uint256",
          "name": "voteCount",
          "type": "uint256"
        }
      ],
      "stateMutability": "view",
      "type": "function"
    },
    {
      "inputs": [],
      "name": "renounceOwnership",
      "outputs": [],
      "stateMutability": "nonpayable",
      "type": "function"
    },
    {
      "inputs": [
        {
          "internalType": "address",
          "name": "newOwner",
          "type": "address"
        }
      ],
      "name": "transferOwnership",
      "outputs": [],
      "stateMutability": "nonpayable",
      "type": "function"
    },
    {
      "inputs": [],
      "name": "winningProposalId",
      "outputs": [
        {
          "internalType": "int256",
          "name": "",
          "type": "int256"
        }
      ],
      "stateMutability": "view",
      "type": "function"
    },
    {
      "inputs": [
        {
          "internalType": "address",
          "name": "_addr",
          "type": "address"
        }
      ],
      "name": "registerVoter",
      "outputs": [],
      "stateMutability": "nonpayable",
      "type": "function"
    },
    {
      "inputs": [],
      "name": "startRegiseringProposal",
      "outputs": [],
      "stateMutability": "nonpayable",
      "type": "function"
    },
    {
      "inputs": [],
      "name": "endRegiseringProposal",
      "outputs": [],
      "stateMutability": "nonpayable",
      "type": "function"
    },
    {
      "inputs": [
        {
          "internalType": "string",
          "name": "_description",
          "type": "string"
        },
        {
          "internalType": "address",
          "name": "_addrVoter",
          "type": "address"
        }
      ],
      "name": "registerProposal",
      "outputs": [],
      "stateMutability": "nonpayable",
      "type": "function"
    },
    {
      "inputs": [],
      "name": "startVotingSession",
      "outputs": [],
      "stateMutability": "nonpayable",
      "type": "function"
    },
    {
      "inputs": [],
      "name": "endVotingSession",
      "outputs": [],
      "stateMutability": "nonpayable",
      "type": "function"
    },
    {
      "inputs": [
        {
          "internalType": "uint256",
          "name": "_proposalId",
          "type": "uint256"
        }
      ],
      "name": "voting",
      "outputs": [],
      "stateMutability": "nonpayable",
      "type": "function"
    },
    {
      "inputs": [],
      "name": "getWinner",
      "outputs": [
        {
          "internalType": "int256",
          "name": "",
          "type": "int256"
        }
      ],
      "stateMutability": "nonpayable",
      "type": "function"
    },
    {
      "inputs": [],
      "name": "getPercentageVoteBlanc",
      "outputs": [
        {
          "internalType": "uint256",
          "name": "",
          "type": "uint256"
        }
      ],
      "stateMutability": "view",
      "type": "function"
    },
    {
      "inputs": [],
      "name": "getTauxParticipation",
      "outputs": [
        {
          "internalType": "uint256",
          "name": "",
          "type": "uint256"
        }
      ],
      "stateMutability": "view",
      "type": "function"
    },
    {
      "inputs": [],
      "name": "getTauxAbstention",
      "outputs": [
        {
          "internalType": "uint256",
          "name": "",
          "type": "uint256"
        }
      ],
      "stateMutability": "view",
      "type": "function"
    },
    {
      "inputs": [],
      "name": "restartProcess",
      "outputs": [],
      "stateMutability": "nonpayable",
      "type": "function"
    }
  ],
  "bytecode": "0x60806040527fffffffffffffffffffffffffffffffffffffffffffffffffffffffffffffffff6001556000600760006101000a81548160ff0219169083600581111562000051576200005062000156565b5b02179055503480156200006357600080fd5b5062000084620000786200008a60201b60201c565b6200009260201b60201c565b62000185565b600033905090565b60008060009054906101000a900473ffffffffffffffffffffffffffffffffffffffff169050816000806101000a81548173ffffffffffffffffffffffffffffffffffffffff021916908373ffffffffffffffffffffffffffffffffffffffff1602179055508173ffffffffffffffffffffffffffffffffffffffff168173ffffffffffffffffffffffffffffffffffffffff167f8be0079c531659141344cd1fd0a4f28419497f9722a3daafe3b4186f6b6457e060405160405180910390a35050565b7f4e487b7100000000000000000000000000000000000000000000000000000000600052602160045260246000fd5b6121d580620001956000396000f3fe608060405234801561001057600080fd5b50600436106101215760003560e01c80638da5cb5b116100ad578063c579b18411610071578063c579b1841461029d578063c64963c5146102a7578063ee74c678146102c5578063f2fde38b146102cf578063fd4a77f1146102eb57610121565b80638da5cb5b1461021d5780638e7ea5b21461023b578063a5106d7f14610259578063a580594614610275578063a7bfab161461029357610121565b806339b150dc116100f457806339b150dc1461019b578063612c4ec6146101b95780636bc20157146101d7578063715018a614610209578063879558b21461021357610121565b8063013cf08b146101265780631a831221146101575780632503ce651461016157806338db6dd31461017f575b600080fd5b610140600480360381019061013b91906115be565b610307565b60405161014e929190611693565b60405180910390f35b61015f6103c3565b005b610169610433565b60405161017691906116c3565b60405180910390f35b6101996004803603810190610194919061173c565b6104cb565b005b6101a361074e565b6040516101b091906116c3565b60405180910390f35b6101c16107ee565b6040516101ce91906116c3565b60405180910390f35b6101f160048036038101906101ec919061173c565b6107f4565b60405161020093929190611784565b60405180910390f35b610211610838565b005b61021b61084c565b005b6102256108bc565b60405161023291906117ca565b60405180910390f35b6102436108e5565b60405161025091906117fe565b60405180910390f35b610273600480360381019061026e919061187e565b610a87565b005b61027d610c8f565b60405161028a91906116c3565b60405180910390f35b61029b610d86565b005b6102a5610df6565b005b6102af610fc5565b6040516102bc91906117fe565b60405180910390f35b6102cd610fcb565b005b6102e960048036038101906102e4919061173c565b61103b565b005b610305600480360381019061030091906115be565b6110be565b005b6005818154811061031757600080fd5b906000526020600020906002020160009150905080600001805461033a9061190d565b80601f01602080910402602001604051908101604052809291908181526020018280546103669061190d565b80156103b35780601f10610388576101008083540402835291602001916103b3565b820191906000526020600020905b81548152906001019060200180831161039657829003601f168201915b5050505050908060010154905082565b6103cb611370565b6001600760006101000a81548160ff021916908360058111156103f1576103f061193e565b5b02179055507f0a97a4ee45751e2abf3e4fc8946939630b11b371ea8ae39ccdc3056e98f5cc3f600060016040516104299291906119b5565b60405180910390a1565b600061043d611370565b6005808111156104505761044f61193e565b5b600760009054906101000a900460ff1660058111156104725761047161193e565b5b146104b2576040517f08c379a00000000000000000000000000000000000000000000000000000000081526004016104a990611a50565b60405180910390fd5b6104ba61074e565b60646104c69190611a9f565b905090565b6104d3611370565b600060058111156104e7576104e661193e565b5b600760009054906101000a900460ff1660058111156105095761050861193e565b5b14610549576040517f08c379a000000000000000000000000000000000000000000000000000000000815260040161054090611b6b565b60405180910390fd5b600860008273ffffffffffffffffffffffffffffffffffffffff1673ffffffffffffffffffffffffffffffffffffffff16815260200190815260200160002060000160009054906101000a900460ff16156105d9576040517f08c379a00000000000000000000000000000000000000000000000000000000081526004016105d090611bd7565b60405180910390fd5b6001600860008373ffffffffffffffffffffffffffffffffffffffff1673ffffffffffffffffffffffffffffffffffffffff16815260200190815260200160002060000160006101000a81548160ff0219169083151502179055506006819080600181540180825580915050600190039060005260206000200160009091909190916101000a81548173ffffffffffffffffffffffffffffffffffffffff021916908373ffffffffffffffffffffffffffffffffffffffff160217905550600360008154809291906106aa90611bf7565b91905055506000600760006101000a81548160ff021916908360058111156106d5576106d461193e565b5b02179055507fb6be2187d059cc2a55fe29e0e503b566e1e0f8c8780096e185429350acffd3dd8160405161070991906117ca565b60405180910390a17f0a97a4ee45751e2abf3e4fc8946939630b11b371ea8ae39ccdc3056e98f5cc3f6000806040516107439291906119b5565b60405180910390a150565b6000610758611370565b60058081111561076b5761076a61193e565b5b600760009054906101000a900460ff16600581111561078d5761078c61193e565b5b146107cd576040517f08c379a00000000000000000000000000000000000000000000000000000000081526004016107c490611a50565b60405180910390fd5b60646003546004546107df9190611c6e565b6107e99190611c9f565b905090565b60025481565b60086020528060005260406000206000915090508060000160009054906101000a900460ff16908060000160019054906101000a900460ff16908060010154905083565b610840611370565b61084a60006113ee565b565b610854611370565b6002600760006101000a81548160ff0219169083600581111561087a5761087961193e565b5b02179055507f0a97a4ee45751e2abf3e4fc8946939630b11b371ea8ae39ccdc3056e98f5cc3f600160026040516108b29291906119b5565b60405180910390a1565b60008060009054906101000a900473ffffffffffffffffffffffffffffffffffffffff16905090565b60006108ef611370565b600460058111156109035761090261193e565b5b600760009054906101000a900460ff1660058111156109255761092461193e565b5b14610965576040517f08c379a000000000000000000000000000000000000000000000000000000000815260040161095c90611d45565b60405180910390fd5b6000805b6005805490508110156109e657816005828154811061098b5761098a611d65565b5b90600052602060002090600202016001015411156109d357600581815481106109b7576109b6611d65565b5b9060005260206000209060020201600101549150806001819055505b80806109de90611bf7565b915050610969565b506005600760006101000a81548160ff02191690836005811115610a0d57610a0c61193e565b5b02179055507f0a97a4ee45751e2abf3e4fc8946939630b11b371ea8ae39ccdc3056e98f5cc3f60046005604051610a459291906119b5565b60405180910390a1600254811015610a7d577fffffffffffffffffffffffffffffffffffffffffffffffffffffffffffffffff610a81565b6001545b91505090565b610a8f611370565b60016005811115610aa357610aa261193e565b5b600760009054906101000a900460ff166005811115610ac557610ac461193e565b5b14610b05576040517f08c379a0000000000000000000000000000000000000000000000000000000008152600401610afc90611e06565b60405180910390fd5b600860008273ffffffffffffffffffffffffffffffffffffffff1673ffffffffffffffffffffffffffffffffffffffff16815260200190815260200160002060000160009054906101000a900460ff16610b94576040517f08c379a0000000000000000000000000000000000000000000000000000000008152600401610b8b90611e72565b60405180910390fd5b6005604051806040016040528085858080601f016020809104026020016040519081016040528093929190818152602001838380828437600081840152601f19601f820116905080830192505050505050508152602001600081525090806001815401808255809150506001900390600052602060002090600202016000909190919091506000820151816000019080519060200190610c359291906114ba565b506020820151816001015550507f92e393e9b54e2f801d3ea4beb0c5e71a21cc34a5d34b77d0fb8a3aa1650dc18f6001600580549050610c759190611a9f565b604051610c8291906116c3565b60405180910390a1505050565b6000610c99611370565b600580811115610cac57610cab61193e565b5b600760009054906101000a900460ff166005811115610cce57610ccd61193e565b5b14610d0e576040517f08c379a0000000000000000000000000000000000000000000000000000000008152600401610d0590611f04565b60405180910390fd5b6000805b600580549050811015610d655760058181548110610d3357610d32611d65565b5b90600052602060002090600202016001015482610d509190611f24565b91508080610d5d90611bf7565b915050610d12565b50606481600254610d769190611c6e565b610d809190611c9f565b91505090565b610d8e611370565b6004600760006101000a81548160ff02191690836005811115610db457610db361193e565b5b02179055507f0a97a4ee45751e2abf3e4fc8946939630b11b371ea8ae39ccdc3056e98f5cc3f60036004604051610dec9291906119b5565b60405180910390a1565b610dfe611370565b6000600760006101000a81548160ff02191690836005811115610e2457610e2361193e565b5b02179055506000600481905560048190556002819055507fffffffffffffffffffffffffffffffffffffffffffffffffffffffffffffffff60018190555060005b600680549050811015610fb45760006008600060068481548110610e8c57610e8b611d65565b5b9060005260206000200160009054906101000a900473ffffffffffffffffffffffffffffffffffffffff1673ffffffffffffffffffffffffffffffffffffffff1673ffffffffffffffffffffffffffffffffffffffff16815260200190815260200160002060000160016101000a81548160ff02191690831515021790556008600060068481548110610f2257610f21611d65565b5b9060005260206000200160009054906101000a900473ffffffffffffffffffffffffffffffffffffffff1673ffffffffffffffffffffffffffffffffffffffff1673ffffffffffffffffffffffffffffffffffffffff16815260200190815260200160002060000160006101000a81548160ff0219169083151502179055508080610fac90611bf7565b915050610e65565b5060066000610fc39190611540565b565b60015481565b610fd3611370565b6003600760006101000a81548160ff02191690836005811115610ff957610ff861193e565b5b02179055507f0a97a4ee45751e2abf3e4fc8946939630b11b371ea8ae39ccdc3056e98f5cc3f600260036040516110319291906119b5565b60405180910390a1565b611043611370565b600073ffffffffffffffffffffffffffffffffffffffff168173ffffffffffffffffffffffffffffffffffffffff16036110b2576040517f08c379a00000000000000000000000000000000000000000000000000000000081526004016110a990611fec565b60405180910390fd5b6110bb816113ee565b50565b6110c6611370565b600360058111156110da576110d961193e565b5b600760009054906101000a900460ff1660058111156110fc576110fb61193e565b5b1461113c576040517f08c379a00000000000000000000000000000000000000000000000000000000081526004016111339061207e565b60405180910390fd5b600860003373ffffffffffffffffffffffffffffffffffffffff1673ffffffffffffffffffffffffffffffffffffffff16815260200190815260200160002060000160009054906101000a900460ff166111cb576040517f08c379a00000000000000000000000000000000000000000000000000000000081526004016111c290611e72565b60405180910390fd5b600860003373ffffffffffffffffffffffffffffffffffffffff1673ffffffffffffffffffffffffffffffffffffffff16815260200190815260200160002060000160019054906101000a900460ff161561125b576040517f08c379a0000000000000000000000000000000000000000000000000000000008152600401611252906120ea565b60405180910390fd5b6005805490508110156112a8576005818154811061127c5761127b611d65565b5b9060005260206000209060020201600101600081548092919061129e90611bf7565b91905055506112c1565b600260008154809291906112bb90611bf7565b91905055505b600460008154809291906112d490611bf7565b91905055506001600860003373ffffffffffffffffffffffffffffffffffffffff1673ffffffffffffffffffffffffffffffffffffffff16815260200190815260200160002060000160016101000a81548160ff0219169083151502179055507f4d99b957a2bc29a30ebd96a7be8e68fe50a3c701db28a91436490b7d53870ca4338260405161136592919061210a565b60405180910390a150565b6113786114b2565b73ffffffffffffffffffffffffffffffffffffffff166113966108bc565b73ffffffffffffffffffffffffffffffffffffffff16146113ec576040517f08c379a00000000000000000000000000000000000000000000000000000000081526004016113e39061217f565b60405180910390fd5b565b60008060009054906101000a900473ffffffffffffffffffffffffffffffffffffffff169050816000806101000a81548173ffffffffffffffffffffffffffffffffffffffff021916908373ffffffffffffffffffffffffffffffffffffffff1602179055508173ffffffffffffffffffffffffffffffffffffffff168173ffffffffffffffffffffffffffffffffffffffff167f8be0079c531659141344cd1fd0a4f28419497f9722a3daafe3b4186f6b6457e060405160405180910390a35050565b600033905090565b8280546114c69061190d565b90600052602060002090601f0160209004810192826114e8576000855561152f565b82601f1061150157805160ff191683800117855561152f565b8280016001018555821561152f579182015b8281111561152e578251825591602001919060010190611513565b5b50905061153c9190611561565b5090565b508054600082559060005260206000209081019061155e9190611561565b50565b5b8082111561157a576000816000905550600101611562565b5090565b600080fd5b600080fd5b6000819050919050565b61159b81611588565b81146115a657600080fd5b50565b6000813590506115b881611592565b92915050565b6000602082840312156115d4576115d361157e565b5b60006115e2848285016115a9565b91505092915050565b600081519050919050565b600082825260208201905092915050565b60005b8381101561162557808201518184015260208101905061160a565b83811115611634576000848401525b50505050565b6000601f19601f8301169050919050565b6000611656826115eb565b61166081856115f6565b9350611670818560208601611607565b6116798161163a565b840191505092915050565b61168d81611588565b82525050565b600060408201905081810360008301526116ad818561164b565b90506116bc6020830184611684565b9392505050565b60006020820190506116d86000830184611684565b92915050565b600073ffffffffffffffffffffffffffffffffffffffff82169050919050565b6000611709826116de565b9050919050565b611719816116fe565b811461172457600080fd5b50565b60008135905061173681611710565b92915050565b6000602082840312156117525761175161157e565b5b600061176084828501611727565b91505092915050565b60008115159050919050565b61177e81611769565b82525050565b60006060820190506117996000830186611775565b6117a66020830185611775565b6117b36040830184611684565b949350505050565b6117c4816116fe565b82525050565b60006020820190506117df60008301846117bb565b92915050565b6000819050919050565b6117f8816117e5565b82525050565b600060208201905061181360008301846117ef565b92915050565b600080fd5b600080fd5b600080fd5b60008083601f84011261183e5761183d611819565b5b8235905067ffffffffffffffff81111561185b5761185a61181e565b5b60208301915083600182028301111561187757611876611823565b5b9250929050565b6000806000604084860312156118975761189661157e565b5b600084013567ffffffffffffffff8111156118b5576118b4611583565b5b6118c186828701611828565b935093505060206118d486828701611727565b9150509250925092565b7f4e487b7100000000000000000000000000000000000000000000000000000000600052602260045260246000fd5b6000600282049050600182168061192557607f821691505b602082108103611938576119376118de565b5b50919050565b7f4e487b7100000000000000000000000000000000000000000000000000000000600052602160045260246000fd5b6006811061197e5761197d61193e565b5b50565b600081905061198f8261196d565b919050565b600061199f82611981565b9050919050565b6119af81611994565b82525050565b60006040820190506119ca60008301856119a6565b6119d760208301846119a6565b9392505050565b7f54616c6c79696e6720766f7465732070726f63657373206973206e6f7420666960008201527f6e69736865642079657400000000000000000000000000000000000000000000602082015250565b6000611a3a602a836115f6565b9150611a45826119de565b604082019050919050565b60006020820190508181036000830152611a6981611a2d565b9050919050565b7f4e487b7100000000000000000000000000000000000000000000000000000000600052601160045260246000fd5b6000611aaa82611588565b9150611ab583611588565b925082821015611ac857611ac7611a70565b5b828203905092915050565b7f5265676973746572696e6720766f746572732073657373696f6e206973206f7660008201527f6572202120526573746172742070726f6365737320746f20726567697374657260208201527f206e657720766f74657273000000000000000000000000000000000000000000604082015250565b6000611b55604b836115f6565b9150611b6082611ad3565b606082019050919050565b60006020820190508181036000830152611b8481611b48565b9050919050565b7f416c726561647920726567697374657265642021000000000000000000000000600082015250565b6000611bc16014836115f6565b9150611bcc82611b8b565b602082019050919050565b60006020820190508181036000830152611bf081611bb4565b9050919050565b6000611c0282611588565b91507fffffffffffffffffffffffffffffffffffffffffffffffffffffffffffffffff8203611c3457611c33611a70565b5b600182019050919050565b7f4e487b7100000000000000000000000000000000000000000000000000000000600052601260045260246000fd5b6000611c7982611588565b9150611c8483611588565b925082611c9457611c93611c3f565b5b828204905092915050565b6000611caa82611588565b9150611cb583611588565b9250817fffffffffffffffffffffffffffffffffffffffffffffffffffffffffffffffff0483118215151615611cee57611ced611a70565b5b828202905092915050565b7f566f74696e672073657373696f6e206973206e6f742066696e69736865640000600082015250565b6000611d2f601e836115f6565b9150611d3a82611cf9565b602082019050919050565b60006020820190508181036000830152611d5e81611d22565b9050919050565b7f4e487b7100000000000000000000000000000000000000000000000000000000600052603260045260246000fd5b7f5265676973746572696e672070726f706f73616c2073657373696f6e2069732060008201527f6f766572206f7220646964206e6f742073746172746564000000000000000000602082015250565b6000611df06037836115f6565b9150611dfb82611d94565b604082019050919050565b60006020820190508181036000830152611e1f81611de3565b9050919050565b7f4e6f742072656769737465726564202100000000000000000000000000000000600082015250565b6000611e5c6010836115f6565b9150611e6782611e26565b602082019050919050565b60006020820190508181036000830152611e8b81611e4f565b9050919050565b7f54616c6c79696e6720766f7465732070726f63657373206973206e6f7420666960008201527f6e69736865640000000000000000000000000000000000000000000000000000602082015250565b6000611eee6026836115f6565b9150611ef982611e92565b604082019050919050565b60006020820190508181036000830152611f1d81611ee1565b9050919050565b6000611f2f82611588565b9150611f3a83611588565b9250827fffffffffffffffffffffffffffffffffffffffffffffffffffffffffffffffff03821115611f6f57611f6e611a70565b5b828201905092915050565b7f4f776e61626c653a206e6577206f776e657220697320746865207a65726f206160008201527f6464726573730000000000000000000000000000000000000000000000000000602082015250565b6000611fd66026836115f6565b9150611fe182611f7a565b604082019050919050565b6000602082019050818103600083015261200581611fc9565b9050919050565b7f566f74696e672073657373696f6e206973206f766572206f7220646964206e6f60008201527f7420737461727465640000000000000000000000000000000000000000000000602082015250565b60006120686029836115f6565b91506120738261200c565b604082019050919050565b600060208201905081810360008301526120978161205b565b9050919050565b7f416c726561647920766f74656420210000000000000000000000000000000000600082015250565b60006120d4600f836115f6565b91506120df8261209e565b602082019050919050565b60006020820190508181036000830152612103816120c7565b9050919050565b600060408201905061211f60008301856117bb565b61212c6020830184611684565b9392505050565b7f4f776e61626c653a2063616c6c6572206973206e6f7420746865206f776e6572600082015250565b60006121696020836115f6565b915061217482612133565b602082019050919050565b600060208201905081810360008301526121988161215c565b905091905056fea26469706673582212200647f52b7c58bda92599a31038eb479705825e38740843253648e9caaf25b2ab64736f6c634300080e0033",
  "immutableReferences": {},
  "source": "/***** Abdelkader KASMI ***** \r\n******** PROJET N1 *********\r\n*****************************/\r\n\r\n// SPDX-License-Identifier: GPL-3.0\r\n\r\npragma solidity 0.8.14;\r\nimport \"./utils/Ownable.sol\";\r\n\r\ncontract Voting is Ownable{\r\n    \r\n    //id winning proposal, on retourne -1 si pas de gagnant\r\n    int public winningProposalId = -1;\r\n    \r\n    //compte votes blancs\r\n    uint public countVoteBlanc;\r\n    \r\n    //nombre total de votants enregistrs\r\n    uint private totalRegistered;\r\n    \r\n    //nombre d'enregistr ayant vot, pour le caclul du taux de participation/abstention\r\n    uint private totalRegisterdVoted;\r\n\r\n    struct Voter {\r\n                  bool isRegistered;\r\n                  bool hasVoted;\r\n                  uint votedProposalId;\r\n                }\r\n    struct Proposal {\r\n                string description;\r\n                uint voteCount;\r\n                    }   \r\n    //tableau des proposals                \r\n    Proposal[] public proposals;\r\n\r\n    //tableau des addr de voters\r\n    address [] private voters;\r\n\r\n    enum WorkflowStatus {\r\n                RegisteringVoters,\r\n                ProposalsRegistrationStarted,\r\n                ProposalsRegistrationEnded,\r\n                VotingSessionStarted,\r\n                VotingSessionEnded,\r\n                VotesTallied\r\n                }\r\n    //status du workflow courant pour la gestion des sessions, plus pratiqe que les timestamps\r\n    WorkflowStatus private currentStatus = WorkflowStatus.RegisteringVoters; \r\n    \r\n    //whitelist des electeurs autoriss\r\n    mapping (address=>Voter) public WhiteList ;\r\n\r\n    event VoterRegistered(address voterAddress); \r\n    event WorkflowStatusChange(WorkflowStatus previousStatus, WorkflowStatus newStatus);\r\n    event ProposalRegistered(uint proposalId);\r\n    event Voted (address voter, uint proposalId);\r\n\r\n\r\n    function registerVoter(address _addr) public  onlyOwner { //enregistrement d'un votant\r\n        require (currentStatus == WorkflowStatus.RegisteringVoters, \"Registering voters session is over ! Restart process to register new voters\" );//session termin\r\n        require (!WhiteList[_addr].isRegistered, \"Already registered !\");\r\n        WhiteList[_addr].isRegistered = true;\r\n        voters.push(_addr);\r\n        totalRegistered ++;\r\n        currentStatus = WorkflowStatus.RegisteringVoters;\r\n        emit VoterRegistered(_addr);\r\n        emit WorkflowStatusChange(WorkflowStatus.RegisteringVoters, WorkflowStatus.RegisteringVoters);\r\n    }\r\n\r\n    function startRegiseringProposal() public onlyOwner{\r\n        currentStatus = WorkflowStatus.ProposalsRegistrationStarted;\r\n        emit WorkflowStatusChange(WorkflowStatus.RegisteringVoters, WorkflowStatus.ProposalsRegistrationStarted);\r\n    }\r\n    \r\n    function endRegiseringProposal() public onlyOwner{\r\n        currentStatus = WorkflowStatus.ProposalsRegistrationEnded;\r\n        emit WorkflowStatusChange(WorkflowStatus.ProposalsRegistrationStarted, WorkflowStatus.ProposalsRegistrationEnded);\r\n    }\r\n\r\n    function registerProposal(string calldata _description, address  _addrVoter) public onlyOwner{ //enregistrement d'une proposal\r\n        require(currentStatus == WorkflowStatus.ProposalsRegistrationStarted, \"Registering proposal session is over or did not started\");\r\n        require(WhiteList[_addrVoter].isRegistered, \"Not registered !\");\r\n        proposals.push(Proposal(_description, 0));\r\n        emit ProposalRegistered(proposals.length-1);  //Id proposal = longueur tableau -1 (ex: l'id de la 1ere proposal est 0)\r\n    }\r\n\r\n    function startVotingSession() public onlyOwner{\r\n        currentStatus = WorkflowStatus.VotingSessionStarted;\r\n        emit WorkflowStatusChange(WorkflowStatus.ProposalsRegistrationEnded, WorkflowStatus.VotingSessionStarted);\r\n    }\r\n\r\n    function endVotingSession() public onlyOwner{\r\n        currentStatus = WorkflowStatus.VotingSessionEnded;\r\n        emit WorkflowStatusChange(WorkflowStatus.VotingSessionStarted, WorkflowStatus.VotingSessionEnded);\r\n    }\r\n\r\n    function voting (uint _proposalId) public onlyOwner{\r\n        require(currentStatus == WorkflowStatus.VotingSessionStarted, \"Voting session is over or did not started\");\r\n        require(WhiteList[msg.sender].isRegistered, \"Not registered !\");\r\n        require(!WhiteList[msg.sender].hasVoted, \"Already voted !\");\r\n        if(_proposalId < proposals.length)\r\n            proposals[_proposalId].voteCount++;\r\n        else// si le proposalId n'existe pas, on le considre comme un vote blanc\r\n            countVoteBlanc++;\r\n        \r\n        totalRegisterdVoted ++;\r\n        WhiteList[msg.sender].hasVoted = true;\r\n        emit Voted(msg.sender, _proposalId);\r\n    }\r\n\r\n    function getWinner()  public onlyOwner returns (int){ //dcompte des voix et dsignation du proposalId gagnant, une fois le vote termin\r\n        require(currentStatus == WorkflowStatus.VotingSessionEnded, \"Voting session is not finished\");\r\n        uint total = 0;\r\n        for (uint i = 0 ; i < proposals.length; i++){\r\n                if (proposals[i].voteCount > total){\r\n                    total = proposals[i].voteCount;\r\n                    winningProposalId = int (i);\r\n                }\r\n        }\r\n\r\n        currentStatus = WorkflowStatus.VotesTallied;\r\n        emit WorkflowStatusChange(WorkflowStatus.VotingSessionEnded, WorkflowStatus.VotesTallied);\r\n        return total >=countVoteBlanc? winningProposalId : -1; //si vote blanc majoritaire on retourne -1 (pas de gagnant)\r\n    }\r\n\r\n\r\n    function getPercentageVoteBlanc () public view onlyOwner returns (uint) {//retourne le taux de vote blanc, une fois le decompte termin\r\n        require (currentStatus == WorkflowStatus.VotesTallied, \"Tallying votes process is not finished\");\r\n        uint totalVotes=0;\r\n        for(uint i = 0 ; i < proposals.length; i++)\r\n            totalVotes += proposals[i].voteCount; \r\n\r\n        return (countVoteBlanc / totalVotes ) * 100;   \r\n    }\r\n\r\n    function getTauxParticipation () public view onlyOwner returns (uint){ // retorune le taux de participation = nb votant / nb inscrit * 100, une fois le dcompte termin\r\n        require (currentStatus == WorkflowStatus.VotesTallied, \"Tallying votes process is not finished yet\");\r\n        return (totalRegisterdVoted / totalRegistered) * 100; \r\n    }\r\n\r\n    function  getTauxAbstention() public view onlyOwner returns (uint){ // retorune le taux d'abstention, une fois le dcompte termin\r\n        require (currentStatus == WorkflowStatus.VotesTallied, \"Tallying votes process is not finished yet\");\r\n        return 100 - getTauxParticipation(); \r\n    }\r\n\r\n    function restartProcess () public  onlyOwner(){ //on recommence le process au dbut\r\n       currentStatus = WorkflowStatus.RegisteringVoters;\r\n       countVoteBlanc = totalRegisterdVoted = totalRegisterdVoted = 0;\r\n       winningProposalId = -1;\r\n       //on reinit les status isRegisterd et hasVoted de la whitelist\r\n       for(uint i = 0; i < voters.length; i++){\r\n           WhiteList[voters[i]].isRegistered = WhiteList[voters[i]].hasVoted = false;\r\n        }\r\n\r\n        delete voters;\r\n    }\r\n\r\n}\r\n",
  "sourcePath": "/root/formation/Init/contracts/Alyra/Voting.sol",
  "compiler": {
    "name": "solc",
    "version": "0.8.14+commit.80d49f37.Emscripten.clang"
  },
  "schemaVersion": "3.4.7",
  "updatedAt": "2022-06-24T09:46:20.095Z",
  "devdoc": {
    "kind": "dev",
    "methods": {
      "owner()": {
        "details": "Returns the address of the current owner."
      },
      "renounceOwnership()": {
        "details": "Leaves the contract without owner. It will not be possible to call `onlyOwner` functions anymore. Can only be called by the current owner. NOTE: Renouncing ownership will leave the contract without an owner, thereby removing any functionality that is only available to the owner."
      },
      "transferOwnership(address)": {
        "details": "Transfers ownership of the contract to a new account (`newOwner`). Can only be called by the current owner."
      }
    },
    "version": 1
  },
  "userdoc": {
    "kind": "user",
    "methods": {},
    "version": 1
  }
}